{
  "contractName": "DiningBallot",
  "abi": [
    {
      "constant": true,
      "inputs": [],
      "name": "state",
      "outputs": [
        {
          "name": "",
          "type": "uint8"
        }
      ],
      "payable": false,
      "stateMutability": "view",
      "type": "function"
    },
    {
      "inputs": [],
      "payable": false,
      "stateMutability": "nonpayable",
      "type": "constructor"
    },
    {
      "constant": false,
      "inputs": [
        {
          "name": "x",
          "type": "uint8"
        }
      ],
      "name": "changeState",
      "outputs": [],
      "payable": false,
      "stateMutability": "nonpayable",
      "type": "function"
    },
    {
      "constant": false,
      "inputs": [
        {
          "name": "voter",
          "type": "address"
        },
        {
          "name": "UBIT_number",
          "type": "uint8"
        },
        {
          "name": "_role",
          "type": "uint8"
        }
      ],
      "name": "registerVoter",
      "outputs": [],
      "payable": false,
      "stateMutability": "nonpayable",
      "type": "function"
    },
    {
      "constant": true,
      "inputs": [],
      "name": "myData",
      "outputs": [
        {
          "name": "",
          "type": "uint8"
        },
        {
          "name": "",
          "type": "bool"
        },
        {
          "name": "",
          "type": "uint8"
        },
        {
          "name": "",
          "type": "uint8"
        },
        {
          "name": "",
          "type": "uint8"
        },
        {
          "name": "",
          "type": "uint8"
        },
        {
          "name": "",
          "type": "uint8"
        }
      ],
      "payable": false,
      "stateMutability": "view",
      "type": "function"
    },
    {
      "constant": false,
      "inputs": [
        {
          "name": "candidate",
          "type": "address"
        },
        {
          "name": "FDA",
          "type": "bool"
        },
        {
          "name": "UBpermit",
          "type": "bool"
        },
        {
          "name": "monthsofexp",
          "type": "uint8"
        },
        {
          "name": "hrs",
          "type": "uint8"
        }
      ],
      "name": "registerCandidate",
      "outputs": [],
      "payable": false,
      "stateMutability": "nonpayable",
      "type": "function"
    },
    {
      "constant": false,
      "inputs": [
        {
          "name": "toProposal",
          "type": "uint8"
        }
      ],
      "name": "vote",
      "outputs": [],
      "payable": false,
      "stateMutability": "nonpayable",
      "type": "function"
    },
    {
      "constant": false,
      "inputs": [
        {
          "name": "toProposal",
          "type": "uint8"
        }
      ],
      "name": "changeVote",
      "outputs": [],
      "payable": false,
      "stateMutability": "nonpayable",
      "type": "function"
    },
    {
      "constant": true,
      "inputs": [
        {
          "name": "candidateAddress",
          "type": "address"
        }
      ],
      "name": "displayCandidateDetails",
      "outputs": [
        {
          "name": "",
          "type": "uint256"
        },
        {
          "name": "",
          "type": "bool"
        },
        {
          "name": "",
          "type": "uint8"
        },
        {
          "name": "",
          "type": "uint256"
        }
      ],
      "payable": false,
      "stateMutability": "view",
      "type": "function"
    },
    {
      "constant": true,
      "inputs": [
        {
          "name": "candidateID",
          "type": "uint256"
        }
      ],
      "name": "displayCandidates",
      "outputs": [
        {
          "name": "",
          "type": "uint256"
        },
        {
          "name": "",
          "type": "bool"
        },
        {
          "name": "",
          "type": "uint8"
        },
        {
          "name": "",
          "type": "uint256"
        }
      ],
      "payable": false,
      "stateMutability": "view",
      "type": "function"
    },
    {
      "constant": true,
      "inputs": [],
      "name": "getVoterCount",
      "outputs": [
        {
          "name": "",
          "type": "uint8"
        }
      ],
      "payable": false,
      "stateMutability": "view",
      "type": "function"
    },
    {
      "constant": true,
      "inputs": [],
      "name": "getCandidateCount",
      "outputs": [
        {
          "name": "",
          "type": "uint8"
        }
      ],
      "payable": false,
      "stateMutability": "view",
      "type": "function"
    },
    {
      "constant": true,
      "inputs": [],
      "name": "reqWinner",
      "outputs": [
        {
          "name": "winningProposal",
          "type": "uint8"
        }
      ],
      "payable": false,
      "stateMutability": "view",
      "type": "function"
    }
  ],
  "bytecode": "0x60806040526003600660006101000a81548160ff0219169083600381111561002357fe5b021790555034801561003457600080fd5b50336000806101000a81548173ffffffffffffffffffffffffffffffffffffffff021916908373ffffffffffffffffffffffffffffffffffffffff1602179055506002600360008060009054906101000a900473ffffffffffffffffffffffffffffffffffffffff1673ffffffffffffffffffffffffffffffffffffffff1673ffffffffffffffffffffffffffffffffffffffff168152602001908152602001600020600001819055506001600660006101000a81548160ff021916908360038111156100fd57fe5b0217905550612015806101116000396000f3fe608060405234801561001057600080fd5b50600436106100b45760003560e01c806395367f121161007157806395367f1214610227578063ab77165014610285578063b3f98adc146102fc578063c19d93fb1461032d578063f7711e1d14610359578063f87703c21461038a576100b4565b806311174a29146100b9578063268f1153146100dd5780632bb141041461010e57806330a563471461017e5780633c1b6dd9146101a2578063508b30c914610203575b600080fd5b6100c1610400565b604051808260ff1660ff16815260200191505060405180910390f35b61010c600480360360208110156100f357600080fd5b81019080803560ff169060200190929190505050610417565b005b6101166104b2565b604051808860ff1660ff168152602001871515151581526020018660ff1660ff1681526020018560ff1660ff1681526020018460ff1660ff1681526020018360ff1660ff1681526020018260ff1660ff16815260200197505050505050505060405180910390f35b6101866106e1565b604051808260ff1660ff16815260200191505060405180910390f35b6101ce600480360360208110156101b857600080fd5b81019080803590602001909291905050506106f8565b60405180858152602001841515151581526020018360ff1660ff16815260200182815260200194505050505060405180910390f35b61020b610783565b604051808260ff1660ff16815260200191505060405180910390f35b6102836004803603606081101561023d57600080fd5b81019080803573ffffffffffffffffffffffffffffffffffffffff169060200190929190803560ff169060200190929190803560ff16906020019092919050505061089b565b005b6102c76004803603602081101561029b57600080fd5b81019080803573ffffffffffffffffffffffffffffffffffffffff169060200190929190505050610ace565b60405180858152602001841515151581526020018360ff1660ff16815260200182815260200194505050505060405180910390f35b61032b6004803603602081101561031257600080fd5b81019080803560ff169060200190929190505050610c09565b005b610335610f3e565b6040518082600381111561034557fe5b60ff16815260200191505060405180910390f35b6103886004803603602081101561036f57600080fd5b81019080803560ff169060200190929190505050610f51565b005b6103fe600480360360a08110156103a057600080fd5b81019080803573ffffffffffffffffffffffffffffffffffffffff169060200190929190803515159060200190929190803515159060200190929190803560ff169060200190929190803560ff16906020019092919050505061137f565b005b6000600460019054906101000a900460ff16905090565b600660009054906101000a900460ff16600381111561043257fe5b81600381111561043e57fe5b1161048c576040517f08c379a0000000000000000000000000000000000000000000000000000000008152600401808060200182810382526000815260200160200191505060405180910390fd5b80600660006101000a81548160ff021916908360038111156104aa57fe5b021790555050565b60008060008060008060008060009054906101000a900473ffffffffffffffffffffffffffffffffffffffff1673ffffffffffffffffffffffffffffffffffffffff163373ffffffffffffffffffffffffffffffffffffffff161415610563576040517f08c379a0000000000000000000000000000000000000000000000000000000008152600401808060200182810382526031815260200180611f016031913960400191505060405180910390fd5b61056b611dea565b600360003373ffffffffffffffffffffffffffffffffffffffff1673ffffffffffffffffffffffffffffffffffffffff16815260200190815260200160002060405180610120016040529081600082015481526020016001820160009054906101000a900460ff161515151581526020016001820160019054906101000a900460ff1660ff1660ff1681526020016001820160029054906101000a900460ff1660ff1660ff1681526020016001820160039054906101000a900460ff1660ff1660ff1681526020016001820160049054906101000a900460ff1660ff1660ff1681526020016001820160059054906101000a900460ff1660ff1660ff1681526020016001820160069054906101000a900460ff1660ff1660ff1681526020016001820160079054906101000a900460ff16151515158152505090508060c001518160200151826060015183608001518460a0015185604001518660e0015197509750975097509750975097505090919293949596565b6000600460009054906101000a900460ff16905090565b60008060008060026000868152602001908152602001600020600001546002600087815260200190815260200160002060010160009054906101000a900460ff166002600088815260200190815260200160002060010160019054906101000a900460ff16600260008981526020019081526020016000206002015493509350935093509193509193565b6000600380600381111561079357fe5b600660009054906101000a900460ff1660038111156107ae57fe5b14610821576040517f08c379a00000000000000000000000000000000000000000000000000000000081526004018080602001828103825260118152602001807f4e6f7420612076616c696420706861736500000000000000000000000000000081525060200191505060405180910390fd5b600080905060008090505b6005805490508160ff161015610892578160058260ff168154811061084d57fe5b906000526020600020016000015411156108855760058160ff168154811061087157fe5b906000526020600020016000015491508093505b808060010191505061082c565b50829250505090565b60018060038111156108a957fe5b600660009054906101000a900460ff1660038111156108c457fe5b14610937576040517f08c379a00000000000000000000000000000000000000000000000000000000081526004018080602001828103825260118152602001807f4e6f7420612076616c696420706861736500000000000000000000000000000081525060200191505060405180910390fd5b600360008573ffffffffffffffffffffffffffffffffffffffff1673ffffffffffffffffffffffffffffffffffffffff16815260200190815260200160002060010160009054906101000a900460ff16156109fa576040517f08c379a00000000000000000000000000000000000000000000000000000000081526004018080602001828103825260168152602001807f596f75206861766520616c726561647920766f7465640000000000000000000081525060200191505060405180910390fd5b600360008573ffffffffffffffffffffffffffffffffffffffff1673ffffffffffffffffffffffffffffffffffffffff16815260200190815260200160002060010160079054906101000a900460ff1615610abd576040517f08c379a00000000000000000000000000000000000000000000000000000000081526004018080602001828103825260198152602001807f566f74657220416c72656164792052656769737465726564210000000000000081525060200191505060405180910390fd5b610ac8848484611869565b50505050565b600080600080600160008673ffffffffffffffffffffffffffffffffffffffff1673ffffffffffffffffffffffffffffffffffffffff16815260200190815260200160002060000154600160008773ffffffffffffffffffffffffffffffffffffffff1673ffffffffffffffffffffffffffffffffffffffff16815260200190815260200160002060010160009054906101000a900460ff16600160008873ffffffffffffffffffffffffffffffffffffffff1673ffffffffffffffffffffffffffffffffffffffff16815260200190815260200160002060010160019054906101000a900460ff16600160008973ffffffffffffffffffffffffffffffffffffffff1673ffffffffffffffffffffffffffffffffffffffff1681526020019081526020016000206002015493509350935093509193509193565b610c11611dea565b600360003373ffffffffffffffffffffffffffffffffffffffff1673ffffffffffffffffffffffffffffffffffffffff16815260200190815260200160002060405180610120016040529081600082015481526020016001820160009054906101000a900460ff161515151581526020016001820160019054906101000a900460ff1660ff1660ff1681526020016001820160029054906101000a900460ff1660ff1660ff1681526020016001820160039054906101000a900460ff1660ff1660ff1681526020016001820160049054906101000a900460ff1660ff1660ff1681526020016001820160059054906101000a900460ff1660ff1660ff1681526020016001820160069054906101000a900460ff1660ff1660ff1681526020016001820160079054906101000a900460ff1615151515815250509050806020015115610d5b57600080fd5b600460009054906101000a900460ff1660ff168260ff161115610de6576040517f08c379a00000000000000000000000000000000000000000000000000000000081526004018080602001828103825260118152602001807f4e6f20737563682063616e64696461746500000000000000000000000000000081525060200191505060405180910390fd5b6001600360003373ffffffffffffffffffffffffffffffffffffffff1673ffffffffffffffffffffffffffffffffffffffff16815260200190815260200160002060010160006101000a81548160ff02191690831515021790555081600360003373ffffffffffffffffffffffffffffffffffffffff1673ffffffffffffffffffffffffffffffffffffffff16815260200190815260200160002060010160016101000a81548160ff021916908360ff160217905550600360003373ffffffffffffffffffffffffffffffffffffffff1673ffffffffffffffffffffffffffffffffffffffff168152602001908152602001600020600101600681819054906101000a900460ff168092919060010191906101000a81548160ff021916908360ff16021790555050600160058360ff1681548110610f2057fe5b90600052602060002001600001600082825401925050819055505050565b600660009054906101000a900460ff1681565b610f59611dea565b600360003373ffffffffffffffffffffffffffffffffffffffff1673ffffffffffffffffffffffffffffffffffffffff16815260200190815260200160002060405180610120016040529081600082015481526020016001820160009054906101000a900460ff161515151581526020016001820160019054906101000a900460ff1660ff1660ff1681526020016001820160029054906101000a900460ff1660ff1660ff1681526020016001820160039054906101000a900460ff1660ff1660ff1681526020016001820160049054906101000a900460ff1660ff1660ff1681526020016001820160059054906101000a900460ff1660ff1660ff1681526020016001820160069054906101000a900460ff1660ff1660ff1681526020016001820160079054906101000a900460ff1615151515815250509050806020015161110b576040517f08c379a00000000000000000000000000000000000000000000000000000000081526004018080602001828103825260158152602001807f596f7520686176656e277420766f74656420796574000000000000000000000081525060200191505060405180910390fd5b600460009054906101000a900460ff1660ff168260ff161115611196576040517f08c379a00000000000000000000000000000000000000000000000000000000081526004018080602001828103825260118152602001807f4e6f20737563682063616e64696461746500000000000000000000000000000081525060200191505060405180910390fd5b60028160e0015160ff1614156111f7576040517f08c379a0000000000000000000000000000000000000000000000000000000008152600401808060200182810382526028815260200180611f326028913960400191505060405180910390fd5b6001600360003373ffffffffffffffffffffffffffffffffffffffff1673ffffffffffffffffffffffffffffffffffffffff16815260200190815260200160002060010160006101000a81548160ff02191690831515021790555060016005826040015160ff168154811061126857fe5b906000526020600020016000016000828254039250508190555081600360003373ffffffffffffffffffffffffffffffffffffffff1673ffffffffffffffffffffffffffffffffffffffff16815260200190815260200160002060010160016101000a81548160ff021916908360ff160217905550600360003373ffffffffffffffffffffffffffffffffffffffff1673ffffffffffffffffffffffffffffffffffffffff168152602001908152602001600020600101600681819054906101000a900460ff168092919060010191906101000a81548160ff021916908360ff16021790555050600160058360ff168154811061136157fe5b90600052602060002001600001600082825401925050819055505050565b600180600381111561138d57fe5b600660009054906101000a900460ff1660038111156113a857fe5b1461141b576040517f08c379a00000000000000000000000000000000000000000000000000000000081526004018080602001828103825260118152602001807f4e6f7420612076616c696420706861736500000000000000000000000000000081525060200191505060405180910390fd5b846001151581151514611479576040517f08c379a0000000000000000000000000000000000000000000000000000000008152600401808060200182810382526027815260200180611ea06027913960400191505060405180910390fd5b8460011515811515146114d7576040517f08c379a0000000000000000000000000000000000000000000000000000000008152600401808060200182810382526029815260200180611fc16029913960400191505060405180910390fd5b8460288160ff1611611534576040517f08c379a0000000000000000000000000000000000000000000000000000000008152600401808060200182810382526040815260200180611f816040913960400191505060405180910390fd5b84601e8160ff1611611591576040517f08c379a000000000000000000000000000000000000000000000000000000000815260040180806020018281038252603a815260200180611ec7603a913960400191505060405180910390fd5b6004600081819054906101000a900460ff168092919060010191906101000a81548160ff021916908360ff16021790555050600160008b73ffffffffffffffffffffffffffffffffffffffff1673ffffffffffffffffffffffffffffffffffffffff16815260200190815260200160002060010160009054906101000a900460ff1615611686576040517f08c379a000000000000000000000000000000000000000000000000000000000815260040180806020018281038252601d8152602001807f416c7265616479204170706c69656420666f722063616e64696461637900000081525060200191505060405180910390fd5b600460009054906101000a900460ff1660ff16600160008c73ffffffffffffffffffffffffffffffffffffffff1673ffffffffffffffffffffffffffffffffffffffff168152602001908152602001600020600001819055506003600160008c73ffffffffffffffffffffffffffffffffffffffff1673ffffffffffffffffffffffffffffffffffffffff1681526020019081526020016000206002018190555060018060008c73ffffffffffffffffffffffffffffffffffffffff1673ffffffffffffffffffffffffffffffffffffffff16815260200190815260200160002060010160006101000a81548160ff0219169083151502179055506040518060800160405280600460009054906101000a900460ff1660ff168152602001600115158152602001600060ff168152602001600381525060026000600460009054906101000a900460ff1660ff1681526020019081526020016000206000820151816000015560208201518160010160006101000a81548160ff02191690831515021790555060408201518160010160016101000a81548160ff021916908360ff160217905550606082015181600201559050506001600460009054906101000a900460ff160160ff1660058161185c9190611e4c565b5050505050505050505050565b600180600381111561187757fe5b600660009054906101000a900460ff16600381111561189257fe5b14611905576040517f08c379a00000000000000000000000000000000000000000000000000000000081526004018080602001828103825260118152602001807f4e6f7420612076616c696420706861736500000000000000000000000000000081525060200191505060405180910390fd5b8160ff1660088114806119185750600981145b61198a576040517f08c379a000000000000000000000000000000000000000000000000000000000815260040180806020018281038252600c8152602001807f496e76616c696420526f6c65000000000000000000000000000000000000000081525060200191505060405180910390fd5b60008460ff161115611d865760088360ff161415611b8d576001600360008773ffffffffffffffffffffffffffffffffffffffff1673ffffffffffffffffffffffffffffffffffffffff168152602001908152602001600020600001819055506000600360008773ffffffffffffffffffffffffffffffffffffffff1673ffffffffffffffffffffffffffffffffffffffff16815260200190815260200160002060010160006101000a81548160ff02191690831515021790555082600360008773ffffffffffffffffffffffffffffffffffffffff1673ffffffffffffffffffffffffffffffffffffffff16815260200190815260200160002060010160046101000a81548160ff021916908360ff16021790555083600360008773ffffffffffffffffffffffffffffffffffffffff1673ffffffffffffffffffffffffffffffffffffffff16815260200190815260200160002060010160056101000a81548160ff021916908360ff1602179055506001600360008773ffffffffffffffffffffffffffffffffffffffff1673ffffffffffffffffffffffffffffffffffffffff16815260200190815260200160002060010160076101000a81548160ff0219169083151502179055506004600181819054906101000a900460ff168092919060010191906101000a81548160ff021916908360ff16021790555050611d81565b60098360ff161415611d80576001600360008773ffffffffffffffffffffffffffffffffffffffff1673ffffffffffffffffffffffffffffffffffffffff168152602001908152602001600020600001819055506000600360008773ffffffffffffffffffffffffffffffffffffffff1673ffffffffffffffffffffffffffffffffffffffff16815260200190815260200160002060010160006101000a81548160ff02191690831515021790555082600360008773ffffffffffffffffffffffffffffffffffffffff1673ffffffffffffffffffffffffffffffffffffffff16815260200190815260200160002060010160046101000a81548160ff021916908360ff16021790555083600360008773ffffffffffffffffffffffffffffffffffffffff1673ffffffffffffffffffffffffffffffffffffffff16815260200190815260200160002060010160056101000a81548160ff021916908360ff1602179055506001600360008773ffffffffffffffffffffffffffffffffffffffff1673ffffffffffffffffffffffffffffffffffffffff16815260200190815260200160002060010160076101000a81548160ff0219169083151502179055506004600181819054906101000a900460ff168092919060010191906101000a81548160ff021916908360ff160217905550505b5b611de3565b60008460ff1611611de2576040517f08c379a0000000000000000000000000000000000000000000000000000000008152600401808060200182810382526027815260200180611f5a6027913960400191505060405180910390fd5b5b5050505050565b60405180610120016040528060008152602001600015158152602001600060ff168152602001600060ff168152602001600060ff168152602001600060ff168152602001600060ff168152602001600060ff1681526020016000151581525090565b815481835581811115611e7357818360005260206000209182019101611e729190611e78565b5b505050565b611e9c91905b80821115611e985760008082016000905550600101611e7e565b5090565b9056fe596f75722064696e696e672063656e746572206d7573742062652046444120617070726f766564596f75722064696e696e672063656e746572206d75737420736572766520666f72206174206c6561737420333020686f7572732061207765656b4368616972706572736f6e20617265206e6f7420656e7469746c656420666f7220616e7920766f74657220726f6c657321596f7520686176652065786861757374656420796f7572206368616e63657320746f20766f746521596f75206e65656420746f20626520612055422073747564656e74206f7220456d706c6f796565596f75722064696e696e672063656e746572206d757374206861766520616e20657870657269656e6365206f66206174206c65617374203430206d6f6e746873596f75722064696e696e672063656e746572206d75737420626520617070726f766564206279205542a165627a7a723058201765dad1f430c522acacdc30d02b432c021be0df830811e1fa342c0cbce9b0d60029",
  "source": "pragma solidity ^0.5.0;\ncontract DiningBallot {\n\n    struct Voter {\n        uint weight;\n        bool voted;\n        uint8 vote;\n        uint8 year;\n        uint8 degree;\n        uint8 role;   // 8 for student and 9 for employee\n        uint8 ubIt;\n        uint8 votingChance;\n        bool registered;\n    }\n\n    struct Proposal {\n        uint voteCount;\n    }\n\n    struct Candidate {\n        uint id;\n        bool applied;\n        uint8 _apply;\n        uint candidate_weight;\n    }\n\n    address chairperson;\n    mapping(address => Candidate) candidates;\n    mapping(uint => Candidate) candidateList;\n    mapping(address => Voter) voters;\n    uint8  candidateCount;\n    uint8  voterCount;\n\n    Proposal[] proposals;\n\n\n    enum Phase {Init,Regs,Vote, Done}\n\n    Phase public state = Phase.Done;\n\n    // Modifiers for chairperson\n\n   modifier validPhase(Phase reqPhase)\n    { require(state == reqPhase, \"Not a valid phase\");\n      _;\n    }\n    modifier onlyChair()\n     {require(msg.sender == chairperson, \"Only chairperson can perform this action\");\n      _;\n     }\n\n\n\n     // Modifiers to apply for candidacy\n\n     modifier isFDAapproved(bool FDA){\n         require(FDA == true, \"Your dining center must be FDA approved\");\n         _;\n     }\n\n     modifier UBfoodPermit(bool UBpermit){\n         require(UBpermit == true, \"Your dining center must be approved by UB\");\n         _;\n     }\n\n     modifier monthsOfExperience(uint8 n){\n         require(n > 40, \"Your dining center must have an experience of at least 40 months\");\n         _;\n     }\n\n     modifier weeklyHours(uint8 hrs){\n         require(hrs > 30, \"Your dining center must serve for at least 30 hours a week\");\n         _;\n     }\n\n     // Modifiers to register for voting\n\n     modifier checkRole(uint _role){\n         require(_role==8 || _role==9,\"Invalid Role\");\n         _;\n     }\n\n     modifier onlyVoter()\n     {require(!(msg.sender == chairperson),\"Chairperson are not entitled for any voter roles!\");\n      _;\n     }\n\n\n    constructor () public  {\n        chairperson = msg.sender;\n        voters[chairperson].weight = 2; // weight 2 for testing purposes\n       // proposals.length = numProposals;\n        state = Phase.Regs;\n\n        // For testing purposes\n        // registerCandidate(0x03130a79e072A2e829E96f753d45e3F7767bB600, true, true, 45 , 35);\n        // registerCandidate(0xAB87653eCFeBBBEd81A96018a23a24bB4C52D83c, true, true, 45 , 35);\n\n\n    }\n\n    function changeState(Phase x) public{\n\n        require (x > state, \"\");\n        state = x;\n     }\n\n    // This function accepts the following parameters when someone wants to register as a voter.\n    // This function can only be accessed by a registered voter.\n\n    function registerVoter(address voter, uint8 UBIT_number,uint8  _role) public validPhase(Phase.Regs){\n\n        require (! voters[voter].voted, \"You have already voted\");\n        require(!voters[voter].registered,\"Voter Already Registered!\");\n        approveVoter(voter, UBIT_number,_role);\n\n    }\n\n    // approveVoter is called when a voter registers himself/herself. It checks if the information provided is correct and\n    // classifies the voter as either a student or an employee.\n    // A person can register as a voter only once.\n\n    function approveVoter(address voter, uint8 UBIT_number, uint8  _role) private validPhase(Phase.Regs) checkRole(_role){\n\n\n        if (UBIT_number > 0){\n\n            if(_role == 8){\n                voters[voter].weight = 1; //weigh students as 1 for voter\n                voters[voter].voted = false;\n                voters[voter].role = _role;\n                voters[voter].ubIt = UBIT_number;\n                voters[voter].registered = true;\n                voterCount++;\n            } else if(_role == 9) {\n                voters[voter].weight = 1; //weigh employees as 1 for voter\n                voters[voter].voted = false;\n                voters[voter].role = _role;\n                voters[voter].ubIt = UBIT_number;\n                voters[voter].registered = true;\n                voterCount++;\n            }\n        }else{\n            require(UBIT_number > 0, \"You need to be a UB student or Employee\");\n        }\n\n    }\n\n    // myData function can be accessed only by the voter to check his/her personal data.\n    // address voterAddress,uint8 role,uint8 UBIT\n    function myData() view public onlyVoter returns (uint8,bool,uint8,uint8,uint8,uint8,uint8) {\n        Voter memory sender = voters[msg.sender];\n        return (sender.ubIt,sender.voted,sender.year,sender.degree,sender.role,sender.vote, sender.votingChance);\n\n\n    }\n\n    // Function registerCandidate is used to register a candidate. It is a public function which can be accessed by everyone.\n    // This function calls a number of modifiers to check if the dining center is FDA and UB approved, the years of experience\n    // weekly hours and similar parameters.\n    ////validPhase(Phase.Regs) isFDAapproved(FDA) UBfoodPermit(UBpermit) monthsOfExperience(monthsofexp) weeklyHours(hrs)\n    function registerCandidate(address candidate, bool FDA, bool UBpermit, uint8 monthsofexp, uint8 hrs) public validPhase(Phase.Regs) isFDAapproved(FDA) UBfoodPermit(UBpermit) monthsOfExperience(monthsofexp) weeklyHours(hrs){\n        candidateCount++;\n        require(!candidates[candidate].applied,\"Already Applied for candidacy\");\n        candidates[candidate].id = candidateCount;\n        candidates[candidate].candidate_weight = 3;\n        candidates[candidate].applied = true;\n        candidateList[candidateCount] = Candidate(candidateCount,true,0,3);\n        proposals.length = candidateCount + 1;\n    }\n\n    // This function is a public function that can be accessed by everyone. A person can vote for multiple candidates.\n    function vote(uint8 toProposal) public { //validPhase(Phase.Vote) {\n\n        Voter memory sender = voters[msg.sender];\n        //require(voters[msg.sender].ubIt > 0,\"Unregistered user\");\n        require (!sender.voted);\n        require (toProposal <= candidateCount, \"No such candidate\");\n\n        voters[msg.sender].voted = true;\n        voters[msg.sender].vote = toProposal;\n        voters[msg.sender].votingChance++;\n        proposals[toProposal].voteCount += 1;\n    }\n\n\n    // This function can be accessed only by a voter to change his/her vote. It requires the voter to already have voted.\n    // When a voter calls this function and mentions a new candidate to vote for, this function deletes his/her previous vote\n    // and increments vote count for the other specified candidate.\n    function changeVote(uint8 toProposal) public { //validPhase(Phase.Vote) onlyVoter {\n        Voter memory sender = voters[msg.sender];\n        require (sender.voted, \"You haven't voted yet\");\n        require (toProposal <= candidateCount, \"No such candidate\");\n        require(sender.votingChance!=2, \"You have exhausted your chances to vote!\");\n        voters[msg.sender].voted = true;\n        proposals[sender.vote].voteCount -=1;\n        voters[msg.sender].vote = toProposal;\n        voters[msg.sender].votingChance++;\n        proposals[toProposal].voteCount += 1;\n    }\n    // This function can be accessed by everyone. It accepts the candidate address as a parameter and\n    // displays the specified candidate information.\n    function displayCandidateDetails(address candidateAddress) public view returns (uint,bool,uint8,uint) {\n\n        return (candidates[candidateAddress].id, candidates[candidateAddress].applied,candidates[candidateAddress]._apply,candidates[candidateAddress].candidate_weight);\n\n    }\n    // This function is similar to the above function. In this function, candidate information can be accessed by ID\n    // instead of their address.\n     function displayCandidates(uint candidateID) public view returns (uint,bool,uint8,uint)  {\n\n       return (candidateList[candidateID].id, candidateList[candidateID].applied,candidateList[candidateID]._apply,candidateList[candidateID].candidate_weight);\n    // returns id, registrerd?,\n    }\n\n    // Returns total number of voters in the blockchain and can be accessed by the chairperson only.\n     function getVoterCount() public view returns (uint8){\n       return voterCount;\n    }\n\n    // Returns total number of candidates and can be viewed by everyone.\n    function getCandidateCount() public view returns (uint8){\n       return candidateCount;\n    }\n\n    // This function tallies all the votes and is used to declare winner. It can be accessed by everyone.\n    // This function can be called only when the chairperson changes the phase to Phase.done, that is, when voting phase is complete.\n    function reqWinner() public validPhase(Phase.Done) view returns (uint8 winningProposal) {\n        uint256 winningVoteCount = 0;\n        for (uint8 prop = 0; prop < proposals.length; prop++)\n            if (proposals[prop].voteCount > winningVoteCount) {\n                winningVoteCount = proposals[prop].voteCount;\n                winningProposal = prop;\n            }\n       //assert(winningVoteCount>=1);\n        return winningProposal;\n    }\n}",
  "sourcePath": "/Users/abhijeet/Desktop/Blockchain/nmirashi_Lab1Part2/DiningBallot-Dapp/DiningBallot-contract/contracts/DiningBallot.sol",
  "compiler": {
    "name": "solc",
    "version": "0.5.8+commit.23d335f2.Emscripten.clang"
  },
  "schemaVersion": "3.0.16",
  "updatedAt": "2019-11-15T11:33:36.597Z",
  "devdoc": {
    "methods": {}
  },
  "userdoc": {
    "methods": {
      "registerCandidate(address,bool,bool,uint8,uint8)": {
        "notice": "/validPhase(Phase.Regs) isFDAapproved(FDA) UBfoodPermit(UBpermit) monthsOfExperience(monthsofexp) weeklyHours(hrs)"
      }
    }
  }
}